S00C00006C6564732E7372656370
S113000019C033C032C0C0C030C02FC02EC02DC0F4
S11300102CC02BC02AC029C028C027C026C025C098
S113002024C023C022C021C020C01FC01EC01DC0C8
S11300301CC01BC011241FBECFEFCDBFDFE3DEBF4A
S11300401FE3A0E0BFE3E2EBF1E002C005900D92F4
S1130050A230B107D9F72FE3A2E0BFE301C01D929C
S1130060A730B207E1F748D0A2C0CACFE0E0FAE077
S113007081E0808383E7818387E0828380E890E066
S113008080A791A782A793A784A795A78FEF90E055
S113009086A397A308951092053F1092063F85E02A
S11300A092E08093053F9093063F0895F8948091E1
S11300B0053F9091063F969587950197F1F78091BA
S11300C0053F9091063F0197F1F728E090E0892FD2
S11300D086959091080495FD02C090E001C090E8D7
S11300E0892B982FE091053FF091063F3197F1F766
S11300F0215069F77894089588ED84BF10926000C8
S113010084BF1092610087E080932004AFDFC3DFD7
S113011080E2809309048BE080931504789411E0C5
S113012004E08091003F8111FCCFF894BFDF789404
S11301301093003F8F3FA9F7C2E0DFE38091003FB7
S11301408111FCCFF894B2DF899378941093003F27
S11301508FE3C530D80791F78091023F90E08093F8
S1130160280A9093290A8091033F90E080932A0AF9
S113017090932B0A8091043F90E080932C0A9093F3
S11301802D0A0093050ACDCF1F920F920FB60F923E
S113019011248F938091080485FB882780F980932C
S11301A0003F8F910F900FBE0F901F901895F894F9
S10501B0FFCF7B
S10501B2010046
S9030000FC
