S00C00006C6564732E7372656370
S113000019C033C032C0C2C030C02FC02EC02DC0F2
S11300102CC02BC02AC029C028C027C026C025C098
S113002024C023C022C021C020C01FC01EC01DC0C8
S11300301CC01BC011241FBECFEFCDBFDFE3DEBF4A
S11300401FE3A0E0BFE3E6EBF1E002C005900D92F0
S1130050A230B107D9F72FE3A2E0BFE301C01D929C
S1130060A830B207E1F748D0A4C0CACFE0E0FAE074
S113007081E0808383E7818383E0828380E890E06A
S113008080A791A782A793A784A795A78FEF90E055
S113009086A397A308951092063F1092073F82EB20
S11300A092E08093063F9093073F0895F8948091DF
S11300B0063F9091073F969587950197F1F78091B8
S11300C0063F9091073F0197F1F790E080E010C060
S11300D086952091080425FF02C020E801C020E095
S11300E0822BE091063FF091073F3197F1F79F5F34
S11300F0983070F37894089587E080932004B6DFF5
S1130100CADFE0E0F4E080E281878BE0858B7894BD
S1130110C0E01BC08091003F8111FCCFF8940F2EEA
S1130120F0E7EF2EF6E0FF2EF02DF70116820C2FEC
S113013010E0BCDFF801EE5FF04C808381E0F70152
S1130140868378941092003FCF5FC43018F3809177
S1130150023F8F3FE9F6E2E0FFE3818190E0A0E017
S1130160BAE098968D939C939997828190E09A96A1
S11301708D939C939B97838190E09C968D939C9305
S11301809D9784E015968C931082C2CF1F920F9294
S11301900FB60F9211248F938091080485FB882752
S11301A080F98093003F8F910F900FBE0F901F90A6
S10901B01895F894FFCF3E
S10501B6010042
S9030000FC
